:020000040000FA
:10000000100400205501000045120000D11100002D
:1000100000000000000000000000000000000000E0
:100020000000000000000000000000009913000024
:10003000000000000000000047120000091400004A
:100040006701000067010000670100006701000010
:100050006701000067010000670100006701000000
:1000600067010000670100006701000067010000F0
:1000700067010000670100006701000067010000E0
:1000800067010000670100006701000067010000D0
:10009000670100006701000067010000FD14000017
:1000A00067010000670100006701000067010000B0
:1000B00000F002F800F03EF80CA030C80838241810
:1000C0002D18671EA246AB4654465D46AC4201D190
:1000D00000F030F87E460F3EB6460FCC0126334284
:1000E00000D0FB1A3343A246AB4618471C21000040
:1000F0003C210000103A02D378C878C1FAD85207E0
:1001000001D330C830C101D504680C6070470000CD
:100110000023002400250026103A01D378C1FBD823
:10012000520700D330C100D50B6070471FB51FBD0B
:1001300010B510BD00F0E3F81146FFF7F7FF01F02E
:1001400015FF00F0FBF803B4FFF7F2FF03BC00F06B
:1001500001F900000748804707480047FEE7FEE72F
:10016000FEE7FEE7FEE7FEE704480549054A064BC1
:10017000704700006D140000B10000001001002065
:1001800010040020100200201002002000220309A9
:100190008B422CD3030A8B4211D300239C464EE0A2
:1001A00003460B433CD4002243088B4231D303095E
:1001B0008B421CD3030A8B4201D394463FE0C30910
:1001C0008B4201D3CB01C01A524183098B4201D328
:1001D0008B01C01A524143098B4201D34B01C01A13
:1001E000524103098B4201D30B01C01A5241C3088B
:1001F0008B4201D3CB00C01A524183088B4201D3FA
:100200008B00C01A524143088B4201D34B00C01AE5
:100210005241411A00D201465241104670475DE0FA
:10022000CA0F00D04942031000D3404253409C46BD
:10023000002203098B422DD3030A8B4212D389017A
:10024000FC2212BA030A8B420CD3890192118B4211
:1002500008D3890192118B4204D389013AD09211BB
:1002600000E08909C3098B4201D3CB01C01A524176
:1002700083098B4201D38B01C01A524143098B423F
:1002800001D34B01C01A524103098B4201D30B0128
:10029000C01A5241C3088B4201D3CB00C01A52414D
:1002A00083088B4201D38B00C01A5241D9D2430834
:1002B0008B4201D34B00C01A5241411A00D2014671
:1002C0005241104663465B1001D34042002B00D5DB
:1002D0004942704763465B1000D3404201B505496F
:1002E000002802DC491C084000E00846C046C04621
:1002F00002BD00BFFFFFFF7F704770477047754624
:1003000000F024F8AE46050069465346C008C00018
:10031000854618B020B5FFF727FF60BCB64600261B
:100320000027C0C5C0C5C0C5C0C5C0C5C0C5C0C503
:10033000C0C5403D490849008D46704710B5044688
:10034000C046C0462046FFF7FEFE10BD004870477D
:100350002000002001491820ABBEFEE72600020065
:10036000704780B501F0FAFB80BD000080B50348FE
:10037000026803490348904780BDC046BC00002086
:10038000E02000000041004081B001466846018045
:10039000008805490860FFE703480068002801D08D
:1003A000FFE7F9E701B07047F800002080B58CB096
:1003B0003248089000683C210791FFF7E7FE079953
:1003C000024608980BAB1A800068FFF7DFFE0AA808
:1003D000018009A90020088029480078002828D039
:1003E000FFE70BA800880C2805D0FFE70BA80088C2
:1003F000002804D1FFE709A90C20088007E00BA81A
:1004000000880C21FFF7C2FE09A80180FFE709A8B8
:10041000059000880A210691FFF7B8FE05980A4664
:100420000699614B1A800088FFF7B0FE5C4908808E
:1004300011E00BA8039000880A210491FFF7A6FEA3
:1004400003980A460499584B1A800088FFF79EFECD
:1004500053490880FFE70AA8019000880A21029109
:10046000FFF794FE01980A460299514B1A800088C2
:10047000FFF78CFE4D4908800CB080BD00000020C5
:100480000501002080B582B0014601A801800088E6
:1004900000F048F86946088010480078012816D115
:1004A000FFE70F48007801A9098888420FD1FFE7CC
:1004B0000D480078002805D0FFE768460088094904
:1004C000086003E00749FF200860FFE704E0684692
:1004D000008804490860FFE702B080BD04010020E5
:1004E000D8000020180200309200002080B584B0AF
:1004F00003A9009108800A4902910F200190086029
:1005000001F05AFD00980088FFF7BCFF0098019A9F
:1005100002990388012098405040086004B080BDD3
:100520001803003083B0014601A8018000880090C4
:1005300003282DD80098810001A040588746C04666
:1005400051050000610500007105000081050000F3
:100550001748008841001348405A02A908801BE050
:100560001248008841000F48405A02A9088013E051
:100570000D48008841000B48405A02A908800BE052
:100580000748008841000748405A02A9088003E054
:1005900002A900200880FFE702A8008803B0704786
:1005A000E60000200C000020E4000020F6000020FF
:1005B000F400002080B590B0B748009000210D9164
:1005C00001220B9200F0B6F900980D9A114600F046
:1005D000FCF900980B9900F067F900980B9A114606
:1005E00000F0A8F900980B990D9A00F0EEF9009828
:1005F0000221049100F058F9009804990B9A00F038
:1006000099F9009804990D9A00F0DFF900980421F7
:10061000079100F049F900980B9A0321059100F029
:1006200089F9009805990D9A00F0CFF900980821F2
:10063000069100F039F90B9A0D999848019000F055
:1006400079F901980D9A114600F0BFF901980B99BC
:1006500000F02AF901980B9A114600F06BF9019805
:100660000B990D9A00F0B1F90198049900F01CF96A
:10067000019804990B9A00F05DF9019804990D9A7C
:1006800000F0A3F90198079900F00EF90198059977
:100690000B9A00F04FF9019805990D9A00F095F921
:1006A0000198069900F000F9019807990B9A00F05B
:1006B00041F9019807990D9A00F087F901981021E6
:1006C000089100F0F1F801980B9A0521099100F0CA
:1006D00031F9019809990D9A00F077F901982021D4
:1006E0000A9100F0E1F801980B9A06210C9100F0B4
:1006F00021F901980C990D9A00F067F901984021B1
:100700000F9100F0D1F805980B9A0D99000702900F
:1007100000F010F902980D9A114600F056F902986F
:100720000B9900F0C1F802980B9A114600F002F9FB
:1007300002980B990D9A00F048F90298049900F07C
:10074000B3F8029804990B9A00F0F4F8029804990F
:100750000D9A00F03AF90298079900F0A5F802986E
:1007600005990B9A00F0E6F8029805990D9A00F0A9
:100770002CF90298069900F097F80D9A48480390D2
:10078000114600F0D7F803980B9A0D9900F01DF967
:1007900003980B990D9A00F0CDF803980B9A114627
:1007A00000F013F9039804990D9A00F0C3F8039828
:1007B00004990B9A00F009F9039805990D9A00F035
:1007C000B9F8039805990B9A00F0FFF80B9A0D9968
:1007D00034480E9000F0AEF80B9A0D990E9800F088
:1007E000F4F80B990E9800F05FF80B9A0E981146EA
:1007F00000F0A0F80B9A0E98114600F0E6F8049964
:100800000E9800F051F804990B9A0E9800F092F8A7
:1008100004990D9A0E9800F0D8F807990E9800F0F8
:1008200043F805990B9A0E9800F084F805990D9AF3
:100830000E9800F0CAF806990E9800F035F807995E
:100840000B9A0E9800F076F807990D9A0E9800F022
:10085000BCF808990E9800F027F809990B9A0E98A1
:1008600000F068F809990D9A0E9800F0AEF80A9910
:100870000E9800F019F80B9A0C990E9800F05AF89F
:100880000C990D9A0E9800F0A0F80E980F9900F0B0
:100890000BF810B080BDC0460003003000020030ED
:1008A000000500300004003082B0019068460180ED
:1008B00000880199086202B0704785B0049003A8CF
:1008C000017002920078072817DCFFE70398810087
:1008D00001A8017004998968009101780F228A406B
:1008E0000099914300910299007881400098084353
:1008F00000900098049988601AE00398083803A9CA
:1009000008700398810001A801700499C9680091DA
:1009100001780F228A400099914300910299007852
:10092000814000980843009000980499C860FFE750
:1009300005B0704786B0059004A8017003A8027046
:10094000007800900098032804D1FFE703A9012054
:100950000870FFE70498410002A801700599096832
:100960000191017803228A4001999143019103A9E1
:100970000978007881400198084301900198059911
:1009800008600098012804D0FFE7009803281AD1D6
:10099000FFE705984068019004A800780121814094
:1009A0000198884301900098032808D1FFE704A824
:1009B000007801218140019808430190FFE70198E8
:1009C00005994860FFE706B0704785B0049003A81A
:1009D000017002A90A700398420068460270049AE6
:1009E00012690192027803239340019A9A4301927B
:1009F0000978007881400198084301900198049992
:100A0000086105B0704782B0019068460180008897
:100A10000199C86102B0704781B00090009A034903
:100A200008681043086001B07047C04600140040D9
:100A300082B001900091174800680007C00F00289D
:100A400006D1FFE713490868084A10430860FFE72A
:100A50000198009908430C2108430549086008687B
:100A600080221043086002B07047C046080007A506
:100A70001418004082B00190009106490868064AA7
:100A80001040009A1043019A1043044A1043086032
:100A900002B0704704180040FFCF0000000007A517
:100AA00082B00190009101980E49086000981949A0
:100AB000086002B07047C04682B001900091009873
:100AC000002806D0FFE7019A06490868104308602D
:100AD00005E0019A0349086890430860FFE702B007
:100AE0007047C0462018004082B0019000910098E5
:100AF000002806D0FFE7019A0649086810430860FD
:100B000005E0019A0349086890430860FFE702B0D6
:100B10007047C0462418004081B0009000980349F7
:100B200008430349086001B07047C04600000A57F7
:100B30000018004082B001900091019803490860BC
:100B400000980349086002B07047C046081800408A
:100B50000C18004083B0019068460170019800288D
:100B600004D1FFE702A90120087016E0684600786A
:100B7000012807D1FFE7019908680122D203104339
:100B8000086006E0019908680122D20390430860DA
:100B9000FFE702A900200870FFE702A8007803B071
:100BA000704786B0049003A8017002A802700498F0
:100BB000002804D1FFE705A90120087028E003A858
:100BC00000780090002804D0FFE70098012804D0A6
:100BD00007E001A92020087003E001A91020087097
:100BE000FFE702A80078012807D1FFE701A80278F3
:100BF000049908681043086006E001A80278049987
:100C0000086890430860FFE705A900200870FFE727
:100C100005A8007806B0704780B588B0069005A892
:100C2000017004920698002804D1FFE707A901206B
:100C30000870E6E006987549884205D1FFE7012172
:100C40000804FFF739FFFFE706987149884205D18C
:100C5000FFE701214804FFF72FFFFFE706986D49E2
:100C6000884205D1FFE701218804FFF725FFFFE750
:100C700006986949884205D1FFE701210802FFF77C
:100C80001BFFFFE706986549884205D1FFE7012170
:100C90004802FFF711FFFFE706986149884205D136
:100CA000FFE701218802FFF707FFFFE706985D498C
:100CB000884205D1FFE70121C802FFF7FDFEFFE7EB
:100CC00005A8007800282AD1FFE70498039003992B
:100CD000C8798003059A12031043897909020843F1
:100CE000694608800398C079012808D1FFE7009879
:100CF0000399097AC902084369460880FFE76846F4
:100D000000880699086003988088401E464908407C
:100D100006990861039800880699486068E005A86C
:100D20000078032805D0FFE705A8007802282ED117
:100D3000FFE7049802900299C8798003059A12038C
:100D40001043897909020843694608800298C079EE
:100D5000012808D1FFE700980299097AC9020843DF
:100D600069460880FFE7684600880699086002988F
:100D70008088401E2C490840069908610298008826
:100D80000699486002984088069988602FE005A877
:100D9000007801282AD1FFE7049801900199487949
:100DA0008003059A120310430979890108436946B3
:100DB000088001984079012808D1FFE7009801993F
:100DC0008979C902084369460880FFE768460088B8
:100DD0000699086001984088401E1349084006990A
:100DE00008610198008806994860FFE7FFE7FFE780
:100DF0000699086801221043086007A900200870BE
:100E0000FFE707A8007808B080BDC0460021004079
:100E1000002200400023004000270040002800403E
:100E200000290040002A0040FF0F000082B000901F
:100E30000098002804D1FFE701A9012008700EE006
:100E400000994B2040020860009903200871009926
:100E5000002048710099887101A90870FFE701A876
:100E6000007802B07047000080B588B00690059108
:100E70000698002804D1FFE707A901200870BAE00E
:100E800006985F49884205D1FFE704200121FFF75A
:100E90002BFEFFE706985B49884205D1FFE7082053
:100EA0000121FFF721FEFFE7FFE706984069C00731
:100EB000002805D0FFE70698006804A90870F4E749
:100EC000FFE7069840698006002801D4FFE7F8E7AD
:100ED0000699002048600699C8600699086106983E
:100EE000406904A902910870069880680870464815
:100EF00000684649086006980599096801F0C8F835
:100F000002990698C0684022104008700598007940
:100F1000039003281AD80398810001A040588746FF
:100F2000310F0000330F00003F0F00004B0F000097
:100F300012E004980121084304A908700CE0049809
:100F40000221084304A9087006E0FFE70498032182
:100F5000084304A90870FFE705984079002801D1EB
:100F6000FFE72CE004980821084304A908700598BD
:100F70004079401E019003281FD80198810001A0EC
:100F800040588746950F0000970F0000A30F000000
:100F9000AF0F000012E004981021084304A9087064
:100FA0000CE004982021084304A9087006E0049886
:100FB0003021084304A9087000E0FFE7FFE7059827
:100FC0008079009000280AD0FFE70098012807D117
:100FD000FFE704980421084304A9087001E0FFE733
:100FE000FFE704A800787F2108400699C86007A998
:100FF00000200870FFE707A8007808B080BDC04651
:101000000040004000410040840000209400002087
:1010100010B588B007900691059204A80370069950
:1010200000910599039100210291007801282BD1AC
:10103000FFE7FFE70398002825D0FFE75748019016
:10104000FFE707984069C007002809D1FFE701982A
:10105000002801D1FFE703E00198401E0190F0E76E
:101060000198002801D1FFE70DE0079800F02AF869
:1010700000994A1C009208700398401E0390029841
:10108000401C0290D6E71AE0FFE70398002815D02D
:10109000FFE707984069C007002801D1FFE70DE08E
:1010A000079800F00FF800994A1C00920870039806
:1010B000401E03900298401C0290E6E7FFE702986A
:1010C00008B010BD81B0009000980068C0B201B0B7
:1010D0007047000010B588B007900691059204A8EB
:1010E00003700699009105990391002102910078FF
:1010F000012834D1FFE7FFE70398002825D0FFE758
:1011000026480190FFE7079840698006002809D427
:10111000FFE70198002801D1FFE703E00198401E96
:101120000190F0E70198002801D1FFE70DE0079852
:1011300000994A1C0092097800F032F80398401E8A
:1011400003900298401C0290D6E7FFE70798406999
:101150004006C00F002801D1FFE7F7E71AE0FFE7DC
:101160000398002815D0FFE70798406980060028FB
:1011700001D4FFE70DE0079800994A1C0092097816
:1011800000F00EF80398401E03900298401C029055
:10119000E6E7FFE7029808B010BDC046FFFF000079
:1011A00083B00190684601700198002804D1FFE7E0
:1011B00002A90120087007E06846007801990860DC
:1011C00002A900200870FFE702A8007803B070476A
:1011D000FFE7FEE780B582B001A90020087017483C
:1011E000006800092D2807D3FFE701A8012101703D
:1011F0005C48FFF708FC07E001A900200870594887
:101200000221FFF700FCFFE70D480078002809D015
:10121000FFE701A801780120884081B25148FFF71B
:10122000F2FB08E001A801780120884081B24D4816
:10123000FFF73AFBFFE702B080BDC0460000002088
:10124000060100207047704780B582B03F20002122
:101250000191FFF725FC019803210A072749116036
:10126000274A1060274A1060274A1060274A1060FA
:10127000274A1060274B284A1A60284A1060284ADB
:10128000106011225204274B1A6005221202264BCD
:101290001A60264A1060264B264A1A60264A1060B9
:1012A000264A1060264A1060264A1060264A1060BE
:1012B000264B274A1A60274A1060274A1060274A9F
:1012C0001060274A1060274B274A1A60274A10608F
:1012D000274A1060274A1060274A1060274A10608A
:1012E000274A116027490860274908602749086094
:1012F000274908602749086002B080BD5555550050
:10130000040000300C0000300800003010000030F5
:101310001800003000010030555A555504010030C6
:101320000C010030080100301001003018010030BD
:101330000002003055555501040200300C02003007
:1013400008020030100200301802003000030030A4
:10135000555500000403003008030030100300302E
:101360001803003000040030555555550404003072
:101370000C04003008040030100400301804003061
:1013800000050030040500300C0500300805003071
:1013900010050030180500307047000080B584B09B
:1013A00002900298401E000E002803D0FFE70120A3
:1013B000039011E00298401E094908600020019046
:1013C000C043032100F088FB019806490860064AE3
:1013D000072111600390FFE7039804B080BDC04669
:1013E00014E000E018E000E010E000E005480068CC
:1013F000002805D0FFE703490868401E0860FFE7A2
:101400007047C046F800002080B5FFF7EFFF80BDB1
:1014100080B584B00F2000210291FFF72BFB0298CA
:101420000390FFE70398C0087C2805D8FFE7FFE793
:101430000398401C0390F5E700200190FFF76CFB38
:1014400001990420FFF776FB0199054A05481060D1
:10145000054A10604020FFF7EBFA04B080BDC0469B
:1014600080000020005A620284000020FFE7064846
:101470000068C0B2552801D0FFE7F8E772B603490B
:10148000034808607047C04628F00040001A00403A
:10149000A095695A80B584B054480021009101603C
:1014A00014480160144AD171282090807D20C0002A
:1014B0001080012003909071518011724A4802906F
:1014C000FFF7AAFB0099039A0298FFF76AFB17201F
:1014D0000190032100F000FB019800F0E7FA039867
:1014E000C005FFF799FA02980399FFF733FB04B0A0
:1014F00080BDC046E00000208800002080B500F0DC
:1015000001F880BD81B0384800680007C00F009026
:101510000098012865D1FFE7334908680822104385
:10152000086032480168491C016000680A2814D12B
:10153000FFE72F480168491C016001682D484843B6
:101540002D49884205D8FFE72C490878C043087028
:10155000FFE7264900200860FFE7254800680A28C1
:1015600014D1FFE726480168491C01600168214841
:1015700048432149884205D8FFE722490878C043FB
:101580000870FFE71A4900200860FFE71C48006860
:101590000A2808D1FFE71C490868401C0860184960
:1015A00000200860FFE7184800683D280ED3FFE7D9
:1015B00015490020086015480078002805D1FFE78C
:1015C00013490868401C0860FFE7FFE710480068FF
:1015D00040092D2804D3FFE70D4900200860FFE7EC
:1015E000FFE701B07047C04600290040D40000204A
:1015F000D0000020CDCCCCCC33333333920000204C
:10160000CC00002006010020000100200401002081
:101610000000002080B582B0FFE7FEF7C7FE01A9F9
:1016200000200880FFE701A8008803280DDCFFE701
:1016300001A80088FEF75AFF0520FEF7A5FEFFE788
:101640000198401C01A90880EDE7FFF7C3FD00F0F9
:10165000FFFAE2E780B584B00290019102984069F8
:10166000C007002806D1FFE701990020087003A9F0
:10167000087008E00298FFF725FD0199087003A99A
:1016800001200870FFE703A8007804B080BD80B592
:1016900084B0039002A901910020087003980123EF
:1016A0001A46FFF7B5FC0198007804B080BD80B5FC
:1016B00084B0019101460198039102A90870039832
:1016C00001231A46FFF706FD04B080BD80B588B03F
:1016D000079006A80190017000780A210291FEF798
:1016E00055FD01980A46029905AB1A700078FEF77D
:1016F0004DFD0299FEF74AFD019804AA1170007889
:101700006421FEF743FD0299FEF740FD03A8017036
:10171000079803993031C9B2FFF7C9FF07980499B8
:101720003031C9B2FFF7C3FF079805993031C9B20C
:10173000FFF7BDFF08B080BD80B58AB0099008A84A
:101740000190018000880A210291FEF71FFD019897
:101750000A46029907AB1A700088FEF717FD029936
:10176000FEF714FD019806AA117000886421FEF7A7
:101770000DFD0299FEF70AFD019805AA1170008877
:101780007D21C900FEF702FD0299FEF7FFFC0198DA
:1017900004AA117000886249FEF7F8FC0299FEF76E
:1017A000F5FC03A80170099803993031C9B2FFF71D
:1017B0007EFF099804993031C9B2FFF778FF099884
:1017C00005993031C9B2FFF772FF09980699303197
:1017D000C9B2FFF76CFF099807993031C9B2FFF71A
:1017E00066FF0AB080BDC04680B58EB00D900C91EA
:1017F0000C980A210191FEF7C9FC084601990BAA31
:1018000010700C98FEF7C2FC0199FEF7BFFC0AA805
:1018100001700C986421FEF7B9FC0199FEF7B6FC43
:1018200009A801700C987D21C900FEF7AFFC019951
:10183000FEF7ACFC08A801700C983949FEF7A6FC2D
:101840000199FEF7A3FC07A801700C983549FEF733
:101850009DFC0199FEF79AFC06A801700C9832498C
:10186000FEF794FC0199FEF791FC05A801700C9815
:101870002E49FEF78BFC0199FEF788FC04A8017045
:101880000C982B49FEF782FC0199FEF77FFC03A818
:1018900001700C982749FEF779FC0199FEF776FC58
:1018A00002A801700D9802993031C9B2FFF7FFFE0E
:1018B0000D9803993031C9B2FFF7F9FE0D980499DC
:1018C0003031C9B2FFF7F3FE0D9805993031C9B236
:1018D000FFF7EDFE0D9806993031C9B2FFF7E7FE2C
:1018E0000D9807993031C9B2FFF7E1FE0D980899BC
:1018F0003031C9B2FFF7DBFE0D9809993031C9B21A
:10190000FFF7D5FE0D980A993031C9B2FFF7CFFE27
:101910000D980B993031C9B2FFF7C9FE0EB080BDEA
:1019200010270000A086010040420F00809698001A
:1019300000E1F50500CA9A3B80B586B0059004A881
:10194000017002A901200870FFE704A8017802A82D
:1019500000788000C1400F20014003A80170059964
:10196000019100780A2805DBFFE703A800783730EB
:10197000009004E003A8007830300090FFE7019861
:101980000099C9B2FFF793FEFFE702AA1078411E43
:1019900011700028D9D1FFE706B080BD80B586B0B0
:1019A000059004A8018002A903200870FFE704A89D
:1019B000018802A800788000C1400F20014003A8E0
:1019C00001700599019100780A2805DBFFE703A85B
:1019D00000783730009004E003A8007830300090A1
:1019E000FFE701980099C9B2FFF761FEFFE702AA7D
:1019F0001078411E11700028D9D1FFE706B080BDD4
:101A000080B586B00590049102A907200870FFE711
:101A1000049902A800788000C1400F20014003A86B
:101A200001700599019100780A2805DBFFE703A8FA
:101A300000783730009004E003A800783030009040
:101A4000FFE701980099C9B2FFF731FEFFE702AA4C
:101A50001078411E11700028DAD1FFE706B080BD72
:101A600080B584B00390029102980190FFE701983D
:101A70000078002808D0FFE7039801994A1C0192DA
:101A80000978FFF714FEF2E704B080BD80B582B09C
:101A90000190009101980099FFF7E2FF0198024937
:101AA000FFF7DEFF02B080BD0422000081B00146D6
:101AB0006846017000214056002809D4FFE76846B7
:101AC00001781F2001400120884002490860FFE79B
:101AD00001B0704700E100E070B582B0024601A895
:101AE0000270009100214056002816D4FFE7002420
:101AF00001A908570322D3431840174A80580957B1
:101B00008C07E50EFF24AC40A043009CA401E4B286
:101B1000AC402043194088501AE001A908780F24EE
:101B2000204008380322D34318400A4A8058002531
:101B300049578D07EE0EFF25B540A843009DAD0126
:101B4000EDB2B54028432140083919408850FFE7DD
:101B500002B070BD1CED00E000E400E080B588B08C
:101B6000234802900721009102220192FEF7E2FE33
:101B70000099029801220492FEF79FFE019A0298B2
:101B800006210391FEF7D6FE02980399049AFEF708
:101B900094FE06A80590FFF749F905994B204002ED
:101BA00006901448FFF760F9134914480860144977
:101BB000144808601449154808601549154808601C
:101BC000154916480860164916480860164917480E
:101BD00008601749174808601749184808601849ED
:101BE0001848086018491948086008B080BDC04608
:101BF0000001003000410040BC000020611A0000DC
:101C0000C00000208D1A000098000020AF160000D0
:101C1000B000002039190000B40000209D19000018
:101C2000B8000020011A00009C000020CD16000022
:101C3000A000002039170000A4000020E9170000D0
:101C4000AC0000208F160000A800002055160000F0
:101C500081B0C348007800280ED0FFE77449012006
:101C60000870744800887A49884204DBFFE77749A6
:101C700001200870FFE7D6E0B9484078002806D078
:101C8000FFE77249002008706E490870CAE0B44846
:101C90008078002804D0FFE769496B480860C0E0FD
:101CA000B0480078002805D0FFE7AE4800785F49CB
:101CB0000870B5E05D480078AA490978884235D0B7
:101CC000FFE760480178491C01700078042804DBB4
:101CD000FFE75C4900200870FFE75A480078009051
:101CE00003281ED80098810001A040588746C046AE
:101CF000011D0000091D0000111D0000191D00003C
:101D00004E49012008800DE04C490A20088009E076
:101D10004A493C20088005E048494B20C000088023
:101D200000E0FFE741490020087078E08D484078E6
:101D3000002814D0FFE78B4840783C498870CD4993
:101D400001200870CC480088652807DBFFE73B4886
:101D500002883B49086880180860FFE75EE0334866
:101D600080788049497888420AD0FFE73348028862
:101D700033490868801808602C49002088704CE0BE
:101D800078488078002814D0FFE776488078274983
:101D9000C870B84901200870B7480088652807DB7B
:101DA000FFE72648028826490868801A0860FFE78E
:101DB00032E01E48C0786B49897888420AD0FFE734
:101DC0001E4802881E490868801A086017490020CA
:101DD000C87020E064480078002805D0FFE762481A
:101DE00000781249487015E0104840785E4909783B
:101DF000884208D0FFE710490878C04308700B49B3
:101E00000020487005E09B49002008709A4908802E
:101E1000FFE7FFE7FFE7FFE7FFE7FFE7FFE7FFE792
:101E2000FFE7FFE7FFE701B07047C046D900002099
:101E3000FE000020FC000020050100200801002019
:101E400000000020D8000020D2040000040100207F
:101E50005902000083B08A480088C01F02900728FA
:101E600021D80298810001A040588746A51E000095
:101E7000A71E0000A71E0000A71E00009D1E000058
:101E8000A71E0000951E00008D1E00003449012091
:101E900008700EE03249012048700AE03049012004
:101EA000887006E005E02E490020887048700870B0
:101EB000FFE773484088C01F0190072821D8019888
:101EC000810001A040588746011F0000031F000049
:101ED000031F0000031F0000F91E0000031F000085
:101EE000F11E0000E91E00001E49012008700EE0EE
:101EF0001C49012048700AE01A490120887006E058
:101F000005E018490020887048700870FFE75C48B9
:101F1000C088C01F009007281BD80098810001A02E
:101F200040588746511F0000531F0000531F0000F8
:101F3000531F00004F1F0000531F00004D1F0000E3
:101F4000451F000008490120087006E005E004E094
:101F500003E0054900200870FFE703B07047C04662
:101F6000E8000020EB000020EE00002080B582B0E9
:101F7000002000900190FFF767F9FFF749FAFEF79C
:101F8000F0F900F003F8009802B080BD80B5FEF7CC
:101F9000EDF9FEF70FFB074800687D21C900FEF749
:101FA000F5F8FFF7FBF9FFF775FA62B6FFF732FBBA
:101FB00080BDC0468000002080B582B001A900200D
:101FC0000880FFE701A80088032840DCFFE701A89C
:101FD0000288012191400F225140284B196000884E
:101FE00041002748405A274909681140884221D0BA
:101FF000FFE701A9088843002348C25A521CC25275
:1020000009884900405A052813DBFFE71D4801688D
:102010000F20014001A802885300194AD1520188BB
:102020004B00194A0021D1520288184901208854D6
:10203000FFE706E001A8008842001349002088520B
:10204000FFE7FFE70198401C01A90880BAE7FFF706
:1020500001FF08480078002805D0FFE706490888F6
:10206000401C088003E0044900200880FFE702B01C
:1020700080BDC046FE000020FC000020180000309B
:102080000400002014050030C4000020EF000020F0
:1020900080B588B0079006911048006805900698B2
:1020A0004001049005980499FEF770F80390059894
:1020B000039A04995143401A01900198000204992F
:1020C000FEF764F8029003A800880799086202A846
:1020D00000780799486208B080BDC046940000208F
:1020E0002A2A2A2A2A2A2A2A2A2A2A2A2A2A2A2A50
:1020F0002A2A2A2A2A2A2A2A2A2A2A2A2A2A2A2A40
:102100002A2A2A2A2A2A2A2A2A2A2A2A2A2A2A2A2F
:102110000A0D54494D4552316E5F4D6174636849F3
:102120006E74657272757074204578616D706C653F
:10213000200A0D20202D204D43553A20202020201C
:1021400020202041333147313233200A0D20202D09
:1021500020436F72653A20202020202020436F7298
:102160007465782D4D302B200A0D20202D204D6FC9
:102170006E69746F72696E673A205541525431200E
:102180002D2033383430302D382D4E2D31200A0D8E
:102190005461726765742050657269706865726118
:1021A0006C3A2054494D45523135200A0D5573691A
:1021B0006E672054696D6572313520696E20696ED5
:1021C00074657272757074206D6F6465200A0D2AD3
:1021D0002A2A2A2A2A2A2A2A2A2A2A2A2A2A2A2A5F
:1021E0002A2A2A2A2A2A2A2A2A2A2A2A2A2A2A2A4F
:1021F0002A2A2A2A2A2A2A2A2A2A2A2A2A2A2A0A5F
:102200000D0A0D000A0D0000282200000000002029
:1022100020000000F4000000482200002000002000
:10222000F003000010010000D20400000F000F00B6
:102230000F000F00C000F900A400B0009900920048
:082240008200F800800090000C
:020000041FFFDC
:10F2000073A2C869FFFF0000FFFF0000DB96FFFF4D
:10F21000FFAAFFFFFFFFFFFFFFFFFFFFFFFFFFFF53
:10F22000FFFFFFFFFFFFFFFFFFFFFFFFFFFFFFFFEE
:10F23000FFFFFFFFFFFFFFFFFFFFFFFFFFFFFFFFDE
:04F24000FFFFFFFFCE
:020000041FFFDC
:10F40000E2E2E2E2FFFFFFFFFFFFFFFFFFFFFFFF80
:10F41000FFFFFFFFFFFFFFFFFFFFFFFFFFFFFFFFFC
:10F42000FFFFFFFFFFFFFFFFFFFFFFFFFFFFFFFFEC
:10F43000FFFFFFFFFFFFFFFFFFFFFFFFFFFFFFFFDC
:10F44000FFFFFFFFFFFFFFFFFFFFFFFFFFFFFFFFCC
:10F45000FFFFFFFFFFFFFFFFFFFFFFFFFFFFFFFFBC
:10F46000FFFFFFFFFFFFFFFFFFFFFFFFFFFFFFFFAC
:10F47000FFFFFFFFFFFFFFFFFFFFFFFFE2E2E2E210
:020000041FFFDC
:10F60000E3E3E3E3FFFFFFFFFFFFFFFFFFFFFFFF7A
:10F61000FFFFFFFFFFFFFFFFFFFFFFFFFFFFFFFFFA
:10F62000FFFFFFFFFFFFFFFFFFFFFFFFFFFFFFFFEA
:10F63000FFFFFFFFFFFFFFFFFFFFFFFFFFFFFFFFDA
:10F64000FFFFFFFFFFFFFFFFFFFFFFFFFFFFFFFFCA
:10F65000FFFFFFFFFFFFFFFFFFFFFFFFFFFFFFFFBA
:10F66000FFFFFFFFFFFFFFFFFFFFFFFFFFFFFFFFAA
:10F67000FFFFFFFFFFFFFFFFFFFFFFFFE3E3E3E30A
:04000005000000B146
:00000001FF
